:100000000C942A001895000018950000189500001F
:10001000189500001895000018950000189500002C
:10002000189500001895000018950000189500001C
:10003000189500001895000018950000189500000C
:1000400018950000189500001895000018950000FC
:10005000189500008FE58DBFCAE1E6EA4E2E88E0D4
:100060008EBFD8E0F7E05F2EA89584B7082E877F73
:1000700084BF88E1992781BD91BDEEEFF7E0A0E64E
:10008000B0E088278D933197E9F788E089B980E05F
:1000900080BD88E18AB966248D9A8E9A8F9AA2983B
:1000A000A398D798BC9AAA9AAB9A97989698C4980E
:1000B000C49A8AEF90E00E941F10C4988D9A8C9A7F
:1000C00081EB8FBD82E08EBD82E08EBD80E090E04E
:1000D00090934B0080934A0087E886B980E087B907
:1000E00007B1007E036007B90E943810A0E6B0E0B7
:1000F0008D939C9391E0A0E6B0E00E944910A0E6A9
:10010000B0E00D911C914FE850E0041B150BA0E6E8
:10011000B0E00D931C93A0E6B0E08D919C91A2E617
:10012000B0E08D939C9307B1007E036007B90E94F5
:100130003810A0E6B0E08D939C9391E0A0E6B0E08B
:100140000E944910A0E6B0E00D911C914FE850E0EC
:10015000041B150BA0E6B0E00D931C93A0E6B0E0E5
:100160000D911C91A2E6B0E04D915C91041B150B22
:10017000A4E6B0E00D931C93A4E6B0E00D911C91B1
:10018000043150E015071CF011F00C94C9000C94D8
:10019000CF0084E190E0A4E6B0E08D939C93A4E6C8
:1001A000B0E00D911C910C3E5FEF15070CF402C0FE
:1001B0000C94E0008CEE9FEFA4E6B0E08D939C934E
:1001C000A0E6B0E00D911C910A3550E015071CF037
:1001D00011F00C94ED000C94F3008AE590E0A0E699
:1001E000B0E08D939C93A0E6B0E00D911C91063A8F
:1001F0005FEF15070CF402C00C94040186EA9FEF30
:10020000A0E6B0E08D939C93A0E6B0E00D911C9128
:100210004AE550E0040F151FA6E6B0E00D931C93CD
:10022000A6E6B0E00D911C9149E250E00E942E102C
:10023000A6E6B0E00D931C93A4E6B0E00D911C91EE
:1002400044E150E0040F151FA8E6B0E00D931C93A5
:10025000A6E6B0E00D911C91A8E6B0E04D915C914E
:10026000040F151FA6E6B0E00D931C93EAEEF2E032
:10027000A6E6B0E08D919C91AAE6B0E00E946410E1
:10028000AAE6B0E00C9107FB16F00C946201AAE616
:10029000B0E08C9180958C93AAE6B0E08C918F5F52
:1002A0008C9391E0AAE6B0E00E944110969A97984C
:1002B000AAE6B0E08C91992790934B0080934A0076
:1002C0000C94710191E0AAE6B0E00E94411096986A
:1002D000979AAAE6B0E08C91992790934B0080936F
:1002E0004A000C948B00F894FFCF7F7F7F7F7F7F45
:1002F0007F7F7F7F7F7F7F7F7F7F7F7F7F7F7F7F0E
:100300007F7F7F7F7F7F7F7F7F7F7F7F7F7F7F7FFD
:100310007F7F7F7F7F7F7F7F7F7F7F7F7F7F7F7FED
:100320007F7F7F7F7F7F7F7F7F7F7F7F7F7F7F7FDD
:1010E0007F7F7F7F7F7F7F7F7F7F7F7F7F2121212A
:1010F00021212121212121212121212121212121E0
:1011000021217F7F7F7F7F7F7F7F7F7F7F7F7F7FAB
:101110007F7F7F7F7F7F1C1C1C1C1C1C1C1C1C1CBD
:101120001C1C1C1C1C1C1C1C1C1C1C7F7F7F7F7F10
:101130007F7F7F7F7F7F7F7F7F7F7F7F7F7F7F1727
:10114000171717171717171717171717171717172F
:10115000171717171717171717171717171717171F
:10116000171717171717171700E9E9E9E9E9E9E968
:10117000E9E9E9E9E9E9E9E9E9E9E9E9E9E9E9E9DF
:10118000E9E9E9E9E9E9E9E9E9E9E9E9E9E9E9E9CF
:10119000E9E981818181818181818181818181816F
:1011A000818181818181E4E4E4E4E4E4E4E4E4E451
:1011B000E4E4E4E4E4E4E4E4E4E4E48181818181DE
:1011C000818181818181818181818181818181DFB1
:1011D000DFDFDFDFDFDFDFDFDFDFDFDFDFDFDFDF1F
:1011E000DFDFDFDF81818181818181818181818177
:1011F00081818181818181818181818181818181DF
:1012000081818181818181818181818181818181CE
:1012100081818181818181818181818181818181BE
:1012200081818181818181818181818181818181AE
:101FE000818181818181810005D00E942E1000FCB9
:101FF0000CD008950024E89457FF02C009D06894DB
:1020000000F80BD010F80124089502D009D00895EB
:10201000509540954F5F5F4F0895E89417FF0895DE
:10202000009510950F5F1F4F689408953197F1F751
:102030000895689462F80895E89462F80895EF931B
:10204000FF93EE27E82BE92B31F0E0EAFFE0319730
:10205000F1F70197D1F7FF91EF9108950F92B80131
:10206000469F8001479F100D569F100D0F900895B9
:10207000369A3699FECF369A3699FECF84B195B10D
:102080000895903029F08C91880F9A95E9F78C93F8
:102090000895903041F00D911C91169507959A95F1
:1020A000E1F71C930E930895C8953196002008958A
:1020B00091E005C092E003C094E001C098E0F4DF35
:0E20C0000D929A95E1F70895E80FF91FF1CF00
:00000001FF
